:020000040000FA
:0600000054EF03F01200B2
:020006000000F8
:08000800D9CFE6FFE1CFD9FFDB
:100010000C0EE126946A936A200EDF6E400EC76EC6
:10002000220EC66E62D8C80EE66EE66AC5D9E552E3
:10003000E55280D8DE52540EDD6E450EF36E020E90
:10004000F3CFDBFF530EF36E030EF3CFDBFF540E43
:10005000F36E040EF3CFDBFF200EF36E050EF3CF2D
:10006000DBFF4C0EF36E060EF3CFDBFF430EF36E99
:10007000070EF3CFDBFF440EF36E080EF3CFDBFF6A
:10008000200EF36E090EF3CFDBFF0A0EDFCFDBFF8E
:10009000DF2A020EE66EE66E9DD8E552E5520A0EA4
:1000A000E66ED950010FE66E000EDA20E66EB6D885
:1000B000E552E552E552B7D70C0EE15C02E2E16A87
:1000C000E552E16EE552E7CFD9FF1200D9CFE6FF46
:1000D000E1CFD9FF8290FE0EDB50C96EC7A0FED7DC
:1000E0008280E552E7CFD9FF120082908292210EE2
:1000F000E66EECDFE552C80EE66EE8DFE552060E6E
:10010000E66EE4DFE552130EE66EE0DFE552200E08
:10011000E66EDCDFE5520C0EE66ED8DFE552400EEF
:10012000E66ED4DFE552800EE66ED0DFE55202D8EF
:10013000C2EF00F0D9CFE6FFE1CFD9FF020EE126F2
:1001400082908282DE6ADD6ADECF02F0DDCF03F0CC
:10015000D890035004E6F80E025C010E035808E242
:10016000E66AB4DFE552DF2A010E01E3DB2AECD7B1
:10017000020EE15C02E2E16AE552E16EE552E7CF90
:10018000D9FF1200D9CFE6FFE1CFD9FF020EE12659
:1001900082908282DE6ADD6ADECF02F0DDCF03F07C
:1001A000D890035004E6F80E025C010E035808E2F2
:1001B000E6688CDFE552DF2A010E01E3DB2AECD78B
:1001C000020EE15C02E2E16AE552E16EE552E7CF40
:1001D000D9FF1200D9CFE6FFE1CFD9FF8292FD0E01
:1001E000DB504009E76EFD0EE7CFDBFFFD0EDBCFF6
:1001F000E6FF6CDFE552FE0EDB50060DF350800982
:10020000E76EFE0EE7CFDBFFFE0EDBCFE6FF5EDF25
:10021000E5528282E552E7CFD9FF1200D9CFE6FF3F
:10022000E1CFD9FF020EE1268282FC0EDB500008EE
:1002300041E2DE6ADD6ADECF02F0DDCF03F0033497
:1002400004E202500408000E035429E3FD0EDBCF44
:10025000E9FFFE0EDBCFEAFFEF50E00F026E036A0C
:1002600002BE0368050E0302F3CF03F00202F3CFD0
:1002700002F0F4500326220E0226040E0322DE5062
:100280000224F66EDD500320F76E0800F550E66E8E
:100290001DDFE552DF2A010E01E3DB2ACCD7E66A37
:1002A00015DFE552FD0EDB2AFE0E01E3DB2AFC0E14
:1002B000DB06BBD7020EE15C02E2E16AE552E16EC9
:1002C000E552E7CFD9FF1200D9CFE6FFE1CFD9FF42
:1002D000FE0EDBCFF6FFF76AF6BEF768050EF702F3
:1002E000F3CFF7FFF602F3CFF6FFF450F726220E16
:1002F000F626040EF722010EF626000EF72208005D
:10030000F550E66EE3DEE552FE0EDBCFF6FFF76A50
:10031000F6BEF768050EF702F3CFF7FFF602F3CF4C
:10032000F6FFF450F726220EF626040EF722020EF0
:10033000F626000EF7220800F550E66EC7DEE552FD
:10034000FE0EDBCFF6FFF76AF6BEF768050EF70282
:10035000F3CFF7FFF602F3CFF6FFF450F726220EA5
:10036000F626040EF722030EF626000EF7220800EA
:10037000F550E66EABDEE552FE0EDBCFF6FFF76A18
:10038000F6BEF768050EF702F3CFF7FFF602F3CFDC
:10039000F6FFF450F726220EF626040EF722040E7E
:1003A000F626000EF7220800F550E66E8FDEE552C5
:1003B000E552E7CFD9FF1200D9CFE6FFE1CFD9FF51
:1003C000020EE126FD0EDBCF02F0FE0EDBCF03F0C6
:1003D000033404E202500008000E035418E2DE6AFF
:1003E000DD6ADECF02F0DDCF03F0033404E2025019
:1003F0006E08000E035405E3DF2A010E01E3DB2A39
:10040000F0D7FD0EDB06FE0E01E2DB06DBD7020EA7
:10041000E15C02E2E16AE552E16EE552E7CFD9FF25
:020420001200C8
:0E042200000000000000002F0000000700078F
:1004300000147F147F14242A7F2A12C4C810264671
:1004400036495522500005030000001C22410000DF
:1004500041221C0014083E081408083E0808000049
:1004600050300010101010100060600000201008C4
:1004700004023E5149453E00427F400042615149DD
:10048000462141454B311814127F10274545453907
:100490003C4A494930017109050336494949360644
:1004A0004949291E0036360000005636000008145F
:1004B00022410014141414140041221408020151A2
:1004C0000906324959513E7E1111117E7F49494931
:1004D000363E414141227F4141221C7F49494941E9
:1004E0007F090909013E4149497A7F0808087F00D0
:1004F000417F41002040413F017F081422417F405D
:100500004040407F020C027F7F0408107F3E414143
:10051000413E7F090909063E4151215E7F091929A3
:1005200046464949493101017F01013F4040403F72
:100530001F2040201F3F4038403F631408146307CA
:10054000087008076151494543007F414100552A21
:10055000552A550041417F000402010204404040F9
:100560004040000102040020545454787F48444421
:10057000383844444420384444487F38545454184C
:10058000087E0901020C5252523E7F080404780092
:10059000447D40002040443D007F1028440000413D
:1005A0007F40007C041804787C08040478384444B4
:1005B00044387C14141408081414187C7C080404AF
:1005C000084854545420043F4440203C4040207C80
:1005D0001C2040201C3C4030403C44281028440C47
:0905E0005050503C4464544C445A
:0605EA00060EF66E000E85
:1005F000F76E000EF86E00010900F550656F0900F6
:10060000F550666F03E1656701D03DD00900F550F4
:10061000606F0900F550616F0900F550626F0900C5
:100620000900F550E96E0900F550EA6E090009006D
:100630000900F550636F0900F550646F0900090067
:10064000F6CF67F0F7CF68F0F8CF69F060C0F6FF3B
:1006500061C0F7FF62C0F8FF0001635302E1645319
:1006600007E00900F550EE6E6307F8E26407F9D77A
:1006700067C0F6FF68C0F7FF69C0F8FF00016507B3
:08068000000E665BBFD71200FB
:08068800000EF36E00EE00F01D
:10069000060E01D81200EA6002D0EE6AFCD7F350D1
:0806A000E9601200EE6AFCD7CC
:0806A80015EE00F025EE00F054
:1006B000F86A019CF5EC02F062EC03F004EC00F047
:0406C000FBD7120052
:0206C400120022
:020000040030CA
:0100010022DC
:010002000BF2
:010003000EEE
:010006008079
:00000001FF
