:020000040000FA
:0600000087EF02F0120080
:020006000000F8
:08000800D9CFE6FFE1CFD9FFDB
:10001000839A839EFE0EDB380F0B0F0B826E838E4E
:10002000020EE66EE66A8FD8E552E552839EFE0E1A
:10003000DB500F0B826E838E020EE66EE66A83D86B
:10004000E552E552839EE552E7CFD9FF1200D9CFA2
:10005000E6FFE1CFD9FF838A839EFE0EDB380F0BCC
:100060000F0B826E838E020EE66EE66A6CD8E55246
:10007000E552839EFE0EDB500F0B826E838E020EC6
:10008000E66EE66A60D8E552E552839EE552E7CF18
:10009000D9FF1200839A839E030E826E280EE66EAD
:1000A000E66A51D8E552E552838E839E050EE66ED0
:1000B000E66A49D8E552E552838E839E050EE66EC8
:1000C000E66A41D8E552E552838E839E020EE66EC3
:1000D000E66A39D8E552E552020E826E838E839E1F
:1000E000280EE66E91DFE552FA0EE66EE66A2BD830
:1000F000E552E5520E0EE66E87DFE552FA0EE66E29
:10010000E66A21D8E552E552010EE66E7DDFE55242
:10011000FA0EE66EE66A17D8E552E552060EE66E6E
:1001200073DFE552FA0EE66EE66A0DD8E552E55247
:10013000800EE66E69DFE552FA0EE66EE66A03D8D7
:10014000E552E5521200D9CFE6FFE1CFD9FF020E0A
:10015000E126FD0EDBCF10F0FE0EDBCF11F01134E7
:1001600004E210500108000E115418E2DE6ADD6A44
:10017000DECF10F0DDCF11F0113404E210506E0824
:10018000000E115405E3DF2A010E01E3DB2AF0D74C
:10019000FD0EDB06FE0E01E2DB06DBD7020EE15CA4
:1001A00002E2E16AE552E16EE552E7CFD9FF1200C3
:1001B000D9CFE6FFE1CFD9FF280EF36EFE0EDBCFDD
:1001C000F4FFF350F45C0CE2FD0EDB5002E0FE0E97
:1001D000DB8CFE0EDB8EFE0EDBCFE6FF15DFE5527D
:1001E000E552E7CFD9FF1200D9CFE6FFE1CFD9FF23
:1001F000080EE66E09DFE552FD0EDBCFF6FFFE0EC0
:10020000DBCFF7FF0800F5500FE0FD0EDBCFF6FF68
:10021000DB2AFE0EDBCFF7FF01E3DB2A0800F550F7
:10022000E66E15DFE552E8D70E0EE66EEDDEE5521E
:10023000E552E7CFD9FF1200D9CFE6FFE1CFD9FFD2
:10024000040EE126E80E106E030E116EFD0EDBCFDC
:1002500008F0FE0EDBCF09F010C00DF011C00EF05B
:100260003BEC02F00850DF6E300EDF24E66EEFDE6E
:10027000E552DF50126E136AE80E1302F3CF13F04B
:10028000030E1202F3501326E80E1202F3CF12F0FF
:10029000F4501326FD0EDBCF08F0FE0EDBCF09F085
:1002A0001250085C106E13500958116E1006000EA3
:1002B000115A640E0D6E0E6A10C008F011C009F0DC
:1002C0003BEC02F008C010F009C011F0010E10C0A4
:1002D000DBFFDB50300FE66EBADEE552FD0EDBCF02
:1002E00010F0FE0EDBCF11F0640E0D6E0E6A10C022
:1002F00008F011C009F03BEC02F004C010F005C09A
:1003000011F00A0E0D6E0E6A10C008F011C009F04F
:100310003BEC02F008C010F009C011F0020E10C052
:10032000DBFFDB50300FE66E92DEE552FD0EDBCFD9
:1003300010F0FE0EDBCF11F00A0E0D6E0E6A10C02B
:1003400008F011C009F03BEC02F004C010F005C049
:1003500011F0030E10C0DBFFDB50300FE66E77DECE
:10036000E552040EE15C02E2E16AE552E16EE5521B
:10037000E7CFD9FF1200010EE66E46DEE55212000D
:10038000060EF66E000EF76E000EF86E0001090004
:10039000F550656F0900F550666F03E1656701D0A0
:1003A0003DD00900F550606F0900F550616F0900FC
:1003B000F550626F09000900F550E96E0900F5502B
:1003C000EA6E090009000900F550636F0900F55055
:1003D000646F09000900F6CF67F0F7CF68F0F8CF37
:1003E00069F060C0F6FF61C0F7FF62C0F8FF00016E
:1003F000635302E1645307E00900F550EE6E6307B2
:10040000F8E26407F9D767C0F6FF68C0F7FF69C074
:0E041000F8FF00016507000E665BBFD7120003
:02041E00956ADD
:10042000946A839E4AEC00F0E66AE66AD8EC00F033
:10043000E552E552350EE66E050EE66EF4EC00F080
:10044000E552E552010EE66EE66AD8EC00F0E552A0
:10045000E5522A0EE66E050EE66EF4EC00F0E5526B
:10046000E552E10EE66E100EE66E1CEC01F0E55270
:06047000E552FFD7120067
:0A047600006A0EAE44EF02F00D6CB8
:100480000E1EE86A0E22001E09AE4CEF02F0086C48
:10049000091EE86A0922001E61EC02F009BE5CEF49
:1004A00002F000AE000C086C091EE86A0922046C18
:1004B000051EE86A0522000C00BE53EF02F0018819
:0204C000FF0C2F
:0E04C200056A046A100EE76ED89008360936F7
:1004D000043605360D50045C0E50055805E30D50EA
:0E04E000045E0E50055A082AE72EF0D71200CF
:0204EE00000EFE
:1004F000F36E00EE00F0060E01D81200EA6002D0A2
:0E050000EE6AFCD7F350E9601200EE6AFCD7F9
:02050E0015EEE8
:1005100000F025EE00F0F86A019CC0EC01F0A3ECBD
:0A05200002F00FEC02F0FBD712000E
:06052A004C696E653220F1
:10053000696E74200048656C6C6F20576F7264217F
:0605400021204C434400A1
:020546001200A1
:020000040030CA
:0100010022DC
:0100020003FA
:010003000EEE
:010006008079
:00000001FF
