:060000000A128A15402DD2
:10000C003930831203178800FF309C0001309D00AB
:10001C009F30870090019101920193019401950109
:10002C0096019701980199019A019B0108007C3077
:10003C0083168F000A128A1106200A128A110230C6
:10004C00131513161317F00001300A128A15DE254A
:10005C000A128A110330F00002300A128A15DE25CA
:10006C000A128A110430F00003300A128A15DE25B8
:10007C000A128A110530F00004300A128A15DE25A6
:10008C000A128A11482883120317161108009315B7
:10009C00931D5428831203179015572883120317A6
:1000AC009011901D5D288312031719156028831277
:1000BC0003171911191D66288312031716156928C1
:1000CC00831203171611161D6F288312031796152A
:1000DC00080083120317961108009315931D7A28B4
:1000EC008312031710157D28831203171011101D8E
:1000FC0083288312031719158628831203171911E5
:10010C00191D8C288312031716158F2883120317B9
:10011C001611161D952883120317961508008312C5
:10012C000317961108001015101DA0288312031731
:10013C001615A328831203171611161DA92883124E
:10014C0003171915AC28831203171911191DB2289E
:10015C0083120317991508008312031799110800CD
:10016C009315931DBD28831203171015C0288312F5
:10017C0003171011101DC628831203171915C9284F
:10018C00831203171911191DCF2883120317991500
:10019C00D228831203179911991DD828831203179B
:1001AC009615080083120317961108001915191DCE
:1001BC00E328831203171015E62883120317101176
:1001CC00101DEC28831203179315EF2883120317C5
:1001DC009311931DF528831203179015F828831299
:1001EC0003179011901DFE288312031799150129EE
:1001FC00831203179911991D07298312031796155A
:10020C00080083120317961108001015101D1229EF
:10021C008312031716151529831203171611161DB1
:10022C001B298312031796150800831203179611C6
:10023C0008001915191D2629831203179915292948
:10024C00831203179911991D2F29831203179015E7
:10025C003229831203179011901D3829831203172A
:10026C0093153B29831203179311931D4129831274
:10027C00031710154429831203171011101D4A2956
:10028C008312031716154D29831203171611161D09
:10029C00532983120317961508008312031796111E
:1002AC0008001915191D5E29831203179915612968
:1002BC00831203179911991D67298312031793153C
:1002CC006A29831203179311931D70298312031744
:1002DC0010157329831203171011101D792983121D
:1002EC00031716157C29831203171611161D822964
:1002FC008312031796150800831203179611080032
:10030C001915191D8D29831203179915902983121C
:10031C0003179911991D9629831203179015992982
:10032C00831203179011901D9F2983120317101528
:10033C00A229831203171011101DA8298312031769
:10034C001615AB29831203171611161DB12983122A
:10035C000317961508008312031796110800191538
:10036C00191DBC29831203179915BF298312031772
:10037C009911991DC529831203179015C829831249
:10038C0003179011901DCE29831203179315D129B1
:10039C00831203179311931DD7298312031710157A
:1003AC00080083120317101108009915991DE229F2
:1003BC00831203179015E529831203179011901DD2
:1003CC00EB29831203179315EE298312031793114C
:1003DC00931DF42983120317961508008312031733
:1003EC00961108001915191DFF2983120317901572
:1003FC00022A831203179011901D082A83120317E7
:10040C0093150B2A831203179311931D112A831230
:10041C0003171015142A831203171011101D1A2A12
:10042C008312031716150800831203171611080000
:10043C001915191D252A831203179915282A8312B9
:10044C0003179911991D2E2A831203179015312A1F
:10045C00831203179011901D372A831203179315DB
:10046C003A2A831203179311931D402A8312031700
:10047C009615080083120317961108001915191DFB
:10048C004B2A8312031799154E2A831203179911BD
:10049C00991D542A831203179015572A8312031798
:1004AC009011901D5D2A8312031796150800831274
:1004BC000317961108009915991D682A83120317C2
:1004CC0090156B2A831203179011901D712A8312B9
:1004DC0003179315742A831203179311931D7A2A09
:1004EC008312031710157D2A831203171011101D88
:1004FC00832A831203171615862A831203171611E3
:10050C00161D8C2A831203179615080083120317E5
:10051C00961108007008003A0319612A013A031970
:10052C00FA2F033A03194D28013A03197328073A95
:10053C0003199928013A0319B628033A0319DC2840
:10054C00013A03190B290F3A03191F29013A031910
:10055C005729033A03198629013A0319B529073A91
:10056C000319DB29013A0319F829033A03191E2A46
:10057C00013A0319442AE42F831203171912991212
:10058C00901293121012161296121A2D1016101E8B
:10059C00D32A831203171616080083120317161298
:1005AC0008009316931EDE2A831203179016E12A75
:1005BC00831203179012901EE72A83120317191641
:1005CC00EA2A831203171912191EF02A8312031731
:1005DC001616F32A831203171612161EF92A831203
:1005EC000317961608008312031796120800931629
:1005FC00931E042B831203171016072B8312031759
:10060C001012101E0D2B831203171916102B8312A8
:10061C0003171912191E162B831203171616192BF2
:10062C00831203171612161E1F2B8312031796160E
:10063C00080083120317961208001016101E2A2B9E
:10064C008312031716162D2B831203171612161E60
:10065C00332B831203171916362B83120317191217
:10066C00191E3C2B831203179916080083120317CB
:10067C00991208009316931E472B8312031710161A
:10068C004A2B831203171012101E502B83120317C0
:10069C001916532B831203171912191E592B831277
:1006AC00031799165C2B831203179912991E622B50
:1006BC00831203179616080083120317961208006C
:1006CC001916191E6D2B831203171016702B83121B
:1006DC0003171012101E762B831203179316792B07
:1006EC00831203179312931E7F2B831203179016FA
:1006FC00822B831203179012901E882B83120317E0
:10070C0099168B2B831203179912991E912B831216
:10071C00031796160800831203179612080010167A
:10072C00101E9C2B8312031716169F2B8312031774
:10073C001612161EA52B8312031796160800831289
:10074C000317961208001916191EB02B83120317E3
:10075C009916B32B831203179912991EB92B831276
:10076C0003179016BC2B831203179012901EC22BEA
:10077C00831203179316C52B831203179312931E20
:10078C00CB2B831203171016CE2B831203171012C8
:10079C00101ED42B831203171616D72B8312031794
:1007AC001612161EDD2B83120317961608008312E1
:1007BC000317961208001916191EE82B831203173B
:1007CC009916EB2B831203179912991EF12B831296
:1007DC0003179316F42B831203179312931EFA2B01
:1007EC00831203171016FD2B831203171012101E01
:1007FC00032C831203171616062C831203171612DA
:10080C00161E0C2C8312031796160800831203175E
:10081C00961208001916191E172C83120317991615
:10082C001A2C831203179912991E202C831203176A
:10083C009016232C831203179012901E292C8312CE
:10084C00031710162C2C831203171012101E322CA7
:10085C00831203171616352C831203171612161E45
:10086C003B2C83120317961608008312031796125B
:10087C0008001916191E462C831203179916492CB9
:10088C00831203179912991E4F2C8312031790167B
:10089C00522C831203179012901E582C831203179C
:1008AC0093165B2C831203179312931E612C8312E5
:1008BC00031710160800831203171012080099165C
:1008CC00991E6C2C8312031790166F2C831203172E
:1008DC009012901E752C831203179316782C83128A
:1008EC0003179312931E7E2C83120317961608007F
:1008FC0083120317961208001916191E892C8312DD
:10090C00031790168C2C831203179012901E922CA6
:10091C00831203179316952C831203179312931EAD
:10092C009B2C8312031710169E2C83120317101284
:10093C00101EA42C8312031716160800831203171B
:10094C00161208001916191EAF2C831203179916CC
:10095C00B22C831203179912991EB82C8312031709
:10096C009016BB2C831203179012901EC12C83126D
:10097C0003179316C42C831203179312931ECA2CBD
:10098C008312031796160800831203179612080099
:10099C001916191ED52C831203179916D82C8312ED
:1009AC0003179912991EDE2C831203179016E12C53
:1009BC00831203179012901EE72C831203179616BE
:1009CC00080083120317961208009916991EF22C30
:1009DC00831203179016F52C831203179012901E96
:1009EC00FB2C831203179316FE2C831203179312FE
:1009FC00931E042D831203171016072D8312031751
:100A0C001012101E0D2D831203171616102D8312A3
:100A1C0003171612161E162D8312031796160800AE
:100A2C0083120317961208007008003A0319EB2C76
:100A3C00013A0319CC2A033A0319D72A013A0319AC
:100A4C00FD2A073A0319232B013A0319402B033AC9
:100A5C000319662B013A0319952B0F3A0319A92B8D
:100A6C00013A0319E12B033A0319102C013A03192B
:100A7C003F2C073A0319652C013A0319822C033ACF
:100A8C000319A82C013A0319CE2CE42F8312031757
:100A9C001913991390139313101316139613A42F61
:100AAC001017101F5D2D83120317161708008312E1
:100ABC000317161308009317931F682D831203173F
:100ACC0090176B2D831203179013901F712D8312A7
:100ADC0003171917742D831203171913191F7A2D65
:100AEC008312031716177D2D831203171613161F67
:100AFC00832D83120317961708008312031796137E
:100B0C0008009317931F8E2D831203171017912D26
:100B1C00831203171013101F972D83120317191725
:100B2C009A2D831203171913191FA02D8312031763
:100B3C001617A32D831203171613161FA92D831234
:100B4C000317961708008312031796130800101743
:100B5C00101FB42D831203171617B72D831203170A
:100B6C001613161FBD2D831203171917C02D8312D0
:100B7C0003171913191FC62D831203179917080091
:100B8C0083120317991308009317931FD12D831207
:100B9C0003171017D42D831203171013101FDA2DFF
:100BAC00831203171917DD2D831203171913191F3D
:100BBC00E32D831203179917E62D8312031799134C
:100BCC00991FEC2D83120317961708008312031735
:100BDC00961308001917191FF72D831203171017F6
:100BEC00FA2D831203171013101F002E83120317F4
:100BFC009317032E831203179313931F092E83123B
:100C0C00031790170C2E831203179013901F122E9C
:100C1C00831203179917152E831203179913991F13
:100C2C001B2E8312031796170800831203179613B3
:100C3C0008001017101F262E831203171617292EC3
:100C4C00831203171613161F2F2E831203179617D2
:100C5C00080083120317961308001917191F3A2E50
:100C6C008312031799173D2E831203179913991F9B
:100C7C00432E831203179017462E831203179013DB
:100C8C00901F4C2E8312031793174F2E83120317AA
:100C9C009313931F552E831203171017582E83127C
:100CAC0003171013101F5E2E831203171617612ED5
:100CBC00831203171613161F672E8312031796172A
:100CCC00080083120317961308001917191F722EA8
:100CDC00831203179917752E831203179913991FF3
:100CEC007B2E8312031793177E2E831203179313F5
:100CFC00931F842E831203171017872E831203174A
:100D0C001013101F8D2E831203171617902E83129B
:100D1C0003171613161F962E831203179617080027
:100D2C0083120317961308001917191FA12E83128B
:100D3C0003179917A42E831203179913991FAA2E20
:100D4C00831203179017AD2E831203179013901F65
:100D5C00B32E831203171017B62E8312031710131A
:100D6C00101FBC2E831203171617BF2E83120317E6
:100D7C001613161FC52E831203179617080083121D
:100D8C000317961308001917191FD02E8312031777
:100D9C009917D32E831203179913991FD92E8312E7
:100DAC0003179017DC2E831203179013901FE22E5B
:100DBC00831203179317E52E831203179313931FB4
:100DCC00EB2E83120317101708008312031710134E
:100DDC0008009917991FF62E831203179017F92EF6
:100DEC00831203179013901FFF2E83120317931770
:100DFC00022F831203179313931F082F83120317C9
:100E0C009617080083120317961308001917191F59
:100E1C00132F831203179017162F83120317901397
:100E2C00901F1C2F8312031793171F2F8312031766
:100E3C009313931F252F831203171017282F831238
:100E4C0003171013101F2E2F8312031716170800E9
:100E5C0083120317161308001917191F392F831241
:100E6C00031799173C2F831203179913991F422FBD
:100E7C00831203179017452F831203179013901F9B
:100E8C004B2F8312031793174E2F831203179313B1
:100E9C00931F542F831203179617080083120317FE
:100EAC00961308001917191F5F2F83120317991730
:100EBC00622F831203179913991F682F831203173C
:100ECC0090176B2F831203179013901F712F83129F
:100EDC000317961708008312031796130800991727
:100EEC00991F7C2F8312031790177F2F83120317E0
:100EFC009013901F852F831203179317882F83123B
:100F0C0003179313931F8E2F831203171017912F10
:100F1C00831203171013101F972F83120317161722
:100F2C009A2F831203171613161FA02F8312031761
:100F3C009617080083120317961308007008003ADE
:100F4C000319752F013A0319562D033A0319612D14
:100F5C00013A0319872D073A0319AD2D013A0319EC
:100F6C00CA2D033A0319F02D013A03191F2E0F3A1B
:100F7C000319332E013A03196B2E033A03199A2ED7
:100F8C00013A0319C92E073A0319EF2E013A031936
:100F9C000C2F033A0319322F013A0319582FE42F5F
:100FAC007108013A0319E82F033A0319FD2F013A8E
:100FBC000319C22A073A03194C2DE42F08000A1210
:100FCC008A15622E0A128A15E22D0A128A15452EEE
:100FDC000A128A15052F0A128A151F2E0A128A1553
:100FEC00CD2E0A128A15BA2D0A128A15F42F0A125E
:040FFC008A15E82F3B
:101A800083010A128A111D28831203179610080079
:101A90001914191C4F2D831203179914522D8312F8
:101AA00003179910991C582D8312031790145B2D5E
:101AB000831203179010901C612D831203171014CA
:101AC000642D831203171010101C6A2D8312031744
:101AD00016146D2D831203171610161C732D831206
:101AE00003179614080083120317961008001914A0
:101AF000191C7E2D831203179914812D831203174D
:101B00009910991C872D8312031790148A2D831224
:101B100003179010901C902D831203179314932D8C
:101B2000831203179310931C992D8312031710141B
:101B3000080083120317101008009914991CA42D93
:101B4000831203179014A72D831203179010901C73
:101B5000AD2D831203179314B02D83120317931026
:101B6000931CB62D831203179614080083120317D3
:101B7000961008001914191CC12D83120317901414
:101B8000C42D831203179010901CCA2D83120317C3
:101B90009314CD2D831203179310931CD32D83120E
:101BA00003171014D62D8312031710100A128A156A
:101BB000101C322F8312031716140800F1000A12AA
:101BC0008A11D62F831203171910991090109310B1
:101BD0001010161096100A128A15A82F1014101C37
:101BE000F52D83120317161408008312031716101D
:101BF00008009314931C002E831203179014032ED5
:101C0000831203179010901C092E831203171914C6
:101C10000C2E831203171910191C122E831203178E
:101C20001614152E831203171610161C1B2E831262
:101C300003179614080083120317961008009314D4
:101C4000931C262E831203171014292E83120317B8
:101C50001010101C2F2E831203171914322E83120A
:101C600003171910191C382E8312031716143B2E54
:101C7000831203171610161C412E83120317961495
:101C8000080083120317961008001014101C4C2E25
:101C90008312031716144F2E831203171610161CE7
:101CA000552E831203171914582E83120317191077
:101CB000191C5E2E83120317991408008312031750
:101CC000991008009314931C692E831203171014A3
:101CD0006C2E831203171010101C722E8312031720
:101CE0001914752E831203171910191C7B2E8312D9
:101CF000031799147E2E8312031799100A128A155E
:101D0000991C862E8312031796140800831203175A
:101D1000961008001914191C912E83120317101421
:101D2000942E831203171010101C9A2E831203177F
:101D300093149D2E831203179310931CA32E8312CA
:101D400003179014A62E831203179010901CAC2E2C
:101D5000831203179914AF2E831203179910991C3D
:101D6000B52E8312031796140800831203179610DA
:101D700008001014101CC02E831203171614C32E53
:101D8000831203171610161CC92E831203179614FC
:101D9000080083120317961008001914191CD42E7A
:101DA000831203179914D72E831203179910991CC5
:101DB000DD2E831203179014E02E83120317901068
:101DC000901CE62E831203179314E92E8312031737
:101DD0009310931CEF2E831203171014F22E83120C
:101DE00003171010101CF82E831203171614FB2E65
:101DF000831203171610161C012F83120317961453
:101E0000080083120317961008001914191C0C2FD0
:101E10008312031799140F2F831203179910991C1B
:101E2000152F831203179314182F8312031793107F
:101E3000931C1E2F831203171014212F83120317D4
:101E40001010101C272F8312031716142A2F831229
:101E5000031716100A128A15161C442D8312031735
:101E60009614080083120317161008001914191C81
:101E70003D2F831203179914402F831203179910D3
:101E8000991C462F831203179014492F83120317AE
:101E90009010901C4F2F831203179314522F83120C
:101EA00003179310931C582F8312031796140800DE
:101EB00083120317961008001914191C632F83123C
:101EC00003179914662F831203179910991C6C2F0E
:101ED0008312031790146F2F831203179010901C16
:101EE000752F831203179614080083120317961098
:101EF00008009914991C802F831203179014832FC4
:101F0000831203179010901C892F831203179314C8
:101F10008C2F831203179310931C922F8312031795
:101F20001014952F831203171010101C9B2F83126F
:101F3000031716149E2F831203171610161CA42FB6
:101F400083120317961408008312031796100800D3
:101F50007008003A0319792F013A0A128A150319F9
:101F6000EE2D033A0319F92D013A0A128A110319C9
:101F7000F12F073A0319EB2F013A0319E52F033A22
:101F80000A128A1503198A2E013A0319B92E0F3A3B
:101F90000A128A110319F42F013A0319EE2F033A9A
:101FA0000A128A150319482D013A0319772D073AA9
:101FB00003199D2D0A128A15013A0319FD2F033AC0
:101FC0000319362F013A03195C2F0A128A11E42FE4
:101FD00083120317191199119011931110111611F1
:101FE00096110A128A11902A10150A128A11101DD0
:101FF000492883120317161508000A128A11F72FB1
:02400E00F4F0CC
:00000001FF
