:020000040000FA
:0600000066EF01F01200A2
:020006000000F8
:080008007ED88290020E6ED832
:1000100071D079D88280020E69D86CD08290829299
:10002000300E816E280E62D8050E60D8050E5ED89F
:10003000020E6FD8140E816E82828292380E52D8D0
:100040000E0E50D8010E4ED8060E4CD8800E72EF10
:1000500000F054D8E652FE0EDB50010809E2DF6AD8
:10006000DF506E0802E3DF2AFBD7FE0EDB06F3D774
:10007000E55240D043D8280EF36EFE0EDBCFF4FFDE
:10008000F350F45C0CE2FD0EDB5002E0FE0EDB8C64
:10009000FE0EDB8EFE0EDBCFE6FFB6DFE5522AD08A
:1000A0002DD8080EE66EB0DFE552FD0EDBCFF6FF71
:1000B000FE0EDBCFF7FF0800F5500EE0FD0EDBCFA4
:1000C000F6FFDB2AFE0EDBCFF7FF01E3DB2A080099
:1000D000F550E66E9EDFE8D70E0E1FD80BD0010E4E
:1000E0008DEF00F01AD8FA0E89EF00F012D8828254
:1000F00082921200E552E7CFD9FF1200D9CFE6FF76
:10010000E1CFD9FF1200FADF8292FE0EDB50816E42
:100110001200E66E9EDFE5521200E66E75DFE552D4
:020120001200CB
:0E012200936A946A0EEC00F0E66AE66A3AEC24
:1001300000F0E552E552F20EE66E020EE66E50EC6D
:1001400000F0E552E552400EE66E04EC00F0E55298
:1001500055D84AD849D84FD83ED8110E4CD84BD88C
:1001600035D81F0E38D8110E46D841D81F0E33D8B7
:10017000110E48D830D834D841D828D831D81F0EDD
:1001800025D80E0E23D82CD81F0E31D8010EE66EBE
:10019000E66A3AEC00F0E552E552E66A09EC00F056
:1001A000E552010E13D8020E11D8030E0FD8040E1B
:1001B0000DD8050E0BD8060E09D8E80EE66E020E15
:1001C000E66E50EC00F0E552E552FFD7E66E09EC22
:1001D00000F0E55212000BD811D80DD8E6EF00F070
:1001E0001F0E10D8F7EF00F006D8FBEF00F0EEDF9F
:1001F0001F0EE6EF00F0EADF110E12000E0EE6DF32
:0E0200001B0E1200F4DF1F0EE1DF1F0E1200B6
:02020E00060EDA
:10021000F66E000EF76E000EF86E00010900F55044
:10022000656F0900F550666F03E1656701D03DD049
:100230000900F550606F0900F550616F0900F55035
:10024000626F09000900F550E96E0900F550EA6E89
:10025000090009000900F550636F0900F550646F4B
:1002600009000900F6CF67F0F7CF68F0F8CF69F022
:1002700060C0F6FF61C0F7FF62C0F8FF0001635382
:1002800002E1645307E00900F550EE6E6307F8E2FF
:100290006407F9D767C0F6FF68C0F7FF69C0F8FFC9
:0C02A00000016507000E665BBFD712006E
:0402AC00000EF36EDF
:1002B00000EE00F0060E01D81200EA6002D0EE6AED
:0C02C000FCD7F350E9601200EE6AFCD796
:0402CC0015EE00F03B
:1002D00025EE00F0F86A019C07EC01F07FEC01F0DC
:0802E00091EC00F0FBD71200C5
:0802E8002042415454455259D3
:0E02F0002000637573746F6D20666F6E74006E
:0202FE001200EC
:020000040030CA
:0100010022DC
:010002000BF2
:010003000EEE
:010006008079
:00000001FF
